{
  "contractName": "Adder",
  "abi": [
    {
      "inputs": [],
      "name": "price",
      "outputs": [
        {
          "internalType": "uint256",
          "name": "",
          "type": "uint256"
        }
      ],
      "stateMutability": "view",
      "type": "function",
      "constant": true
    },
    {
      "inputs": [],
      "name": "value",
      "outputs": [
        {
          "internalType": "uint256",
          "name": "",
          "type": "uint256"
        }
      ],
      "stateMutability": "view",
      "type": "function",
      "constant": true
    },
    {
      "inputs": [
        {
          "internalType": "uint256",
          "name": "_numberToAdd",
          "type": "uint256"
        }
      ],
      "name": "addNumber",
      "outputs": [],
      "stateMutability": "payable",
      "type": "function",
      "payable": true
    }
  ],
  "bytecode": "0x60806040526714d1120d7b16000060015534801561001c57600080fd5b5061016b8061002c6000396000f3fe6080604052600436106100345760003560e01c80633fa4f24514610039578063a035b1fe14610061578063fce6802314610077575b600080fd5b34801561004557600080fd5b5061004f60005481565b60405190815260200160405180910390f35b34801561006d57600080fd5b5061004f60015481565b61008a6100853660046100f6565b61008c565b005b6001543410156100e25760405162461bcd60e51b815260206004820152601960248201527f596f75206e65656420746f2073656e64206d6f72652045544800000000000000604482015260640160405180910390fd5b806000546100f0919061010f565b60005550565b60006020828403121561010857600080fd5b5035919050565b6000821982111561013057634e487b7160e01b600052601160045260246000fd5b50019056fea2646970667358221220ba739d921f60964b636170f14ff53e7d39c64372c9eec2cdad06da31e724d0ab64736f6c634300080d0033",
  "immutableReferences": {},
  "source": "pragma solidity ^0.8.12;\n\ncontract Adder {\n    uint256 public value;\n    uint256 public price = 1.5 ether;\n\n    function addNumber(uint256 _numberToAdd) public payable {\n        require(msg.value >= price, \"You need to send more ETH\");\n        value = value + _numberToAdd;\n    }\n}\n",
  "sourcePath": "/Users/robertrinearson/Documents/blockchain/lfg/employee-test/test/ethers-react-project/src/contracts/Adder.sol",
  "compiler": {
    "name": "solc",
    "version": "0.8.13+commit.abaa5c0e.Emscripten.clang"
  },
  "schemaVersion": "3.4.3",
  "updatedAt": "2022-05-11T15:34:50.692Z",
  "networkType": "ethereum",
  "devdoc": {
    "kind": "dev",
    "methods": {},
    "version": 1
  },
  "userdoc": {
    "kind": "user",
    "methods": {},
    "version": 1
  }
}