{
  "contractName": "Adder",
  "abi": [
    {
      "inputs": [
        {
          "internalType": "uint256",
          "name": "_numberToAdd",
          "type": "uint256"
        }
      ],
      "name": "addNumber",
      "outputs": [],
      "stateMutability": "payable",
      "type": "function"
    }
  ],
  "bytecode": "0x60806040526714d1120d7b16000060015534801561001c57600080fd5b5061010c8061002c6000396000f3fe608060405260043610601c5760003560e01c8063fce68023146021575b600080fd5b6030602c3660046099565b6032565b005b60015434101560875760405162461bcd60e51b815260206004820152601960248201527f596f75206e65656420746f2073656e64206d6f72652045544800000000000000604482015260640160405180910390fd5b806000546093919060b1565b60005550565b60006020828403121560aa57600080fd5b5035919050565b6000821982111560d157634e487b7160e01b600052601160045260246000fd5b50019056fea26469706673582212209eb34703d404877d582bd696405b95b8d81de647d341f8500b57fca6777e988464736f6c634300080d0033",
  "immutableReferences": {},
  "source": "pragma solidity ^0.8.12;\n\ncontract Adder {\n    uint256 value;\n    uint256 price = 1.5 ether;\n\n    function addNumber(uint256 _numberToAdd) public payable {\n        require(msg.value >= price, \"You need to send more ETH\");\n        value = value + _numberToAdd;\n    }\n}\n",
  "sourcePath": "/Users/robertrinearson/Documents/blockchain/lfg/employee-test/ethers-react-project/src/contracts/Adder.sol",
  "compiler": {
    "name": "solc",
    "version": "0.8.13+commit.abaa5c0e.Emscripten.clang"
  },
  "schemaVersion": "3.4.3",
  "updatedAt": "2022-04-19T23:59:30.336Z",
  "devdoc": {
    "kind": "dev",
    "methods": {},
    "version": 1
  },
  "userdoc": {
    "kind": "user",
    "methods": {},
    "version": 1
  }
}